:0E00FB00407924301912027800108906C7409F
:0700E90093F5807FE87E0320
:0B00F000EF1FAC0670011E4C70F622E2
:10008E00D2A1D2A0E4F50AF50BAE0AAF0B7C007D2F
:10009E000A1200038F09AE0AAF0B7C007D0A120014
:1000AE00038D08E4F50CC2A0E5099000FB1200E9EF
:1000BE00D2A0C2A1E5081200E9D2A1050CD3E50C2D
:1000CE006480948A40E0050BE50B7002050AD39418
:0B00DE002FE50A6480948040B080A9E8
:03000000020109F1
:0C010900787FE4F6D8FD75810C02008EB2
:10000300C2D5EC30E709B2D5E4C39DFDE49CFCEE18
:1000130030E715B2D5E4C39FFFE49EFE120039C357
:10002300E49DFDE49CFC800312003930D507C3E452
:060033009FFFE49EFE2287
:10003900BC000BBE0029EF8DF084FFADF022E4CCAB
:10004900F875F008EF2FFFEE33FEEC33FCEE9DEC74
:10005900984005FCEE9DFE0FD5F0E9E4CEFD22EDBA
:10006900F8F5F0EE8420D21CFEADF075F008EF2F04
:10007900FFED33FD4007985006D5F0F222C398FDF5
:050089000FD5F0EA2292
:00000001FF
