:0A00A300C0F9A4B0999282F8809091
:0700380093F5807F0A7E00B2
:10003F00EF1FAC0670011E4C6014758901758CFCA6
:0F004F00758A18D28C308DFDC28DC28C80E22252
:0300030002008078
:10008000C0E0C0D0050AD3E50A648094A54003759A
:070090000A00D0D0D0E032DD
:10000600D2AFD2A8D288E50A75F00A12005EF509C9
:10001600E50A75F00A12005E85F008C2A0E50990AF
:1000260000A3120038D2A0C2A1E508120038D2A15E
:0200360080D474
:0300000002009764
:0C009700787FE4F6D8FD75810A020006AF
:10005E00C2D530F707B2D563F0FF05F030E70CB22A
:10006E00D5F4048463F0FF05F080018430D502F4EA
:02007E0004225A
:00000001FF
