:10008F0044756F6E672044696E68204E67686961BA
:10009F00003137353532353230323136303030305D
:0200AF00380017
:10013900E4FDFCC3ED9FEC9E50070DBD00010C8052
:01014900F2C3
:01014A002292
:1000B100E4FDFCC3ED9FEC9E5015E4FBFA0BBB0085
:0F00C100010AEB647D4A70F50DBD00010C80E46F
:0100D000220D
:030126001200F1D3
:10012900D2A27F037E00120139C2A27F32020139B5
:1000F100EF1392A4EFC3131392A5EF1313543F13FD
:0C01010092A6EF131313541F1392A722B1
:10014B00AB07EBC4540FFF120126AF031200F102F1
:02015B00012978
:10000300E4FF1200F17F147E001200B1C2A0C2A16E
:100013007F031201267F057E001200B11201297FA2
:10002300647E001201391201297F021200F11201CC
:10003300297F2812014B7F0C12014B7F0612014BC3
:050043007F0102014BEA
:1000D100ED7006EF2480FA8004EF24C0FA7FE87EF9
:1000E10003120139AF0212014B7F327E0002013946
:08016900D2A012014BC2A0223A
:10006C008B088A09890AAB08AA09A90A12010DFF93
:10007C0060101201697401250AF50AE43509F509C5
:03008C0080E422EB
:10004800120003E4FDFF1200D17BFF7A00798F12C2
:10005800006C7D01E4FF1200D17BFF7A0079A012C9
:04006800006C80FEAA
:0300000002015D9D
:0C015D00787FE4F6D8FD75810A020048A6
:10010D00BB010689828A83E0225002E722BBFE02F0
:09011D00E32289828A83E4932223
:00000001FF
